{
  "_format": "hh-sol-artifact-1",
  "contractName": "TShirtFactory",
  "sourceName": "contracts/TShirtFactory.sol",
  "abi": [
    {
      "inputs": [],
      "stateMutability": "nonpayable",
      "type": "constructor"
    },
    {
      "anonymous": false,
      "inputs": [
        {
          "indexed": true,
          "internalType": "address",
          "name": "owner",
          "type": "address"
        },
        {
          "indexed": true,
          "internalType": "address",
          "name": "approved",
          "type": "address"
        },
        {
          "indexed": true,
          "internalType": "uint256",
          "name": "tokenId",
          "type": "uint256"
        }
      ],
      "name": "Approval",
      "type": "event"
    },
    {
      "anonymous": false,
      "inputs": [
        {
          "indexed": true,
          "internalType": "address",
          "name": "owner",
          "type": "address"
        },
        {
          "indexed": true,
          "internalType": "address",
          "name": "operator",
          "type": "address"
        },
        {
          "indexed": false,
          "internalType": "bool",
          "name": "approved",
          "type": "bool"
        }
      ],
      "name": "ApprovalForAll",
      "type": "event"
    },
    {
      "anonymous": false,
      "inputs": [
        {
          "indexed": false,
          "internalType": "uint256",
          "name": "tShirtId",
          "type": "uint256"
        },
        {
          "indexed": false,
          "internalType": "string",
          "name": "name",
          "type": "string"
        },
        {
          "indexed": false,
          "internalType": "string",
          "name": "imgUrl",
          "type": "string"
        }
      ],
      "name": "NewTShirt",
      "type": "event"
    },
    {
      "anonymous": false,
      "inputs": [
        {
          "indexed": true,
          "internalType": "address",
          "name": "from",
          "type": "address"
        },
        {
          "indexed": true,
          "internalType": "address",
          "name": "to",
          "type": "address"
        },
        {
          "indexed": true,
          "internalType": "uint256",
          "name": "tokenId",
          "type": "uint256"
        }
      ],
      "name": "Transfer",
      "type": "event"
    },
    {
      "inputs": [
        {
          "internalType": "address",
          "name": "_approved",
          "type": "address"
        },
        {
          "internalType": "uint256",
          "name": "_tokenId",
          "type": "uint256"
        }
      ],
      "name": "approve",
      "outputs": [],
      "stateMutability": "nonpayable",
      "type": "function"
    },
    {
      "inputs": [
        {
          "internalType": "address",
          "name": "owner",
          "type": "address"
        }
      ],
      "name": "balanceOf",
      "outputs": [
        {
          "internalType": "uint256",
          "name": "",
          "type": "uint256"
        }
      ],
      "stateMutability": "view",
      "type": "function"
    },
    {
      "inputs": [
        {
          "internalType": "string",
          "name": "_name",
          "type": "string"
        }
      ],
      "name": "createRandomTShirt",
      "outputs": [],
      "stateMutability": "nonpayable",
      "type": "function"
    },
    {
      "inputs": [
        {
          "internalType": "uint256",
          "name": "tokenId",
          "type": "uint256"
        }
      ],
      "name": "getApproved",
      "outputs": [
        {
          "internalType": "address",
          "name": "",
          "type": "address"
        }
      ],
      "stateMutability": "view",
      "type": "function"
    },
    {
      "inputs": [
        {
          "internalType": "address",
          "name": "_owner",
          "type": "address"
        }
      ],
      "name": "getTShirtsByOwner",
      "outputs": [
        {
          "internalType": "uint256[]",
          "name": "",
          "type": "uint256[]"
        }
      ],
      "stateMutability": "view",
      "type": "function"
    },
    {
      "inputs": [
        {
          "internalType": "address",
          "name": "owner",
          "type": "address"
        },
        {
          "internalType": "address",
          "name": "operator",
          "type": "address"
        }
      ],
      "name": "isApprovedForAll",
      "outputs": [
        {
          "internalType": "bool",
          "name": "",
          "type": "bool"
        }
      ],
      "stateMutability": "view",
      "type": "function"
    },
    {
      "inputs": [],
      "name": "name",
      "outputs": [
        {
          "internalType": "string",
          "name": "",
          "type": "string"
        }
      ],
      "stateMutability": "view",
      "type": "function"
    },
    {
      "inputs": [
        {
          "internalType": "uint256",
          "name": "tokenId",
          "type": "uint256"
        }
      ],
      "name": "ownerOf",
      "outputs": [
        {
          "internalType": "address",
          "name": "",
          "type": "address"
        }
      ],
      "stateMutability": "view",
      "type": "function"
    },
    {
      "inputs": [
        {
          "internalType": "address",
          "name": "from",
          "type": "address"
        },
        {
          "internalType": "address",
          "name": "to",
          "type": "address"
        },
        {
          "internalType": "uint256",
          "name": "tokenId",
          "type": "uint256"
        }
      ],
      "name": "safeTransferFrom",
      "outputs": [],
      "stateMutability": "nonpayable",
      "type": "function"
    },
    {
      "inputs": [
        {
          "internalType": "address",
          "name": "from",
          "type": "address"
        },
        {
          "internalType": "address",
          "name": "to",
          "type": "address"
        },
        {
          "internalType": "uint256",
          "name": "tokenId",
          "type": "uint256"
        },
        {
          "internalType": "bytes",
          "name": "_data",
          "type": "bytes"
        }
      ],
      "name": "safeTransferFrom",
      "outputs": [],
      "stateMutability": "nonpayable",
      "type": "function"
    },
    {
      "inputs": [
        {
          "internalType": "address",
          "name": "operator",
          "type": "address"
        },
        {
          "internalType": "bool",
          "name": "approved",
          "type": "bool"
        }
      ],
      "name": "setApprovalForAll",
      "outputs": [],
      "stateMutability": "nonpayable",
      "type": "function"
    },
    {
      "inputs": [
        {
          "internalType": "bytes4",
          "name": "interfaceId",
          "type": "bytes4"
        }
      ],
      "name": "supportsInterface",
      "outputs": [
        {
          "internalType": "bool",
          "name": "",
          "type": "bool"
        }
      ],
      "stateMutability": "view",
      "type": "function"
    },
    {
      "inputs": [],
      "name": "symbol",
      "outputs": [
        {
          "internalType": "string",
          "name": "",
          "type": "string"
        }
      ],
      "stateMutability": "view",
      "type": "function"
    },
    {
      "inputs": [
        {
          "internalType": "uint256",
          "name": "",
          "type": "uint256"
        }
      ],
      "name": "tShirtToOwner",
      "outputs": [
        {
          "internalType": "address",
          "name": "",
          "type": "address"
        }
      ],
      "stateMutability": "view",
      "type": "function"
    },
    {
      "inputs": [
        {
          "internalType": "uint256",
          "name": "",
          "type": "uint256"
        }
      ],
      "name": "tShirts",
      "outputs": [
        {
          "internalType": "string",
          "name": "name",
          "type": "string"
        },
        {
          "internalType": "string",
          "name": "imgUrl",
          "type": "string"
        }
      ],
      "stateMutability": "view",
      "type": "function"
    },
    {
      "inputs": [
        {
          "internalType": "uint256",
          "name": "tokenId",
          "type": "uint256"
        }
      ],
      "name": "tokenURI",
      "outputs": [
        {
          "internalType": "string",
          "name": "",
          "type": "string"
        }
      ],
      "stateMutability": "view",
      "type": "function"
    },
    {
      "inputs": [
        {
          "internalType": "address",
          "name": "_from",
          "type": "address"
        },
        {
          "internalType": "address",
          "name": "_to",
          "type": "address"
        },
        {
          "internalType": "uint256",
          "name": "_tokenId",
          "type": "uint256"
        }
      ],
      "name": "transferFrom",
      "outputs": [],
      "stateMutability": "nonpayable",
      "type": "function"
    }
  ],
  "bytecode": "0x60806040523480156200001157600080fd5b506040518060400160405280600581526020017f4e465465650000000000000000000000000000000000000000000000000000008152506040518060400160405280600381526020017f4e46540000000000000000000000000000000000000000000000000000000000815250816000908051906020019062000096929190620000b8565b508060019080519060200190620000af929190620000b8565b505050620001cd565b828054620000c69062000168565b90600052602060002090601f016020900481019282620000ea576000855562000136565b82601f106200010557805160ff191683800117855562000136565b8280016001018555821562000136579182015b828111156200013557825182559160200191906001019062000118565b5b50905062000145919062000149565b5090565b5b80821115620001645760008160009055506001016200014a565b5090565b600060028204905060018216806200018157607f821691505b602082108114156200019857620001976200019e565b5b50919050565b7f4e487b7100000000000000000000000000000000000000000000000000000000600052602260045260246000fd5b61331b80620001dd6000396000f3fe608060405234801561001057600080fd5b506004361061010b5760003560e01c80637bf318eb116100a2578063a22cb46511610071578063a22cb465146102dd578063b88d4fde146102f9578063c87b56dd14610315578063e324c12214610345578063e985e9c5146103755761010b565b80637bf318eb1461024257806380f999691461027257806395d89b411461028e5780639de5ed22146102ac5761010b565b806323b872dd116100de57806323b872dd146101aa57806342842e0e146101c65780636352211e146101e257806370a08231146102125761010b565b806301ffc9a71461011057806306fdde0314610140578063081812fc1461015e578063095ea7b31461018e575b600080fd5b61012a600480360381019061012591906121c6565b6103a5565b6040516101379190612769565b60405180910390f35b610148610487565b6040516101559190612784565b60405180910390f35b61017860048036038101906101739190612259565b610519565b60405161018591906126e0565b60405180910390f35b6101a860048036038101906101a3919061218a565b61059e565b005b6101c460048036038101906101bf9190612084565b6106bc565b005b6101e060048036038101906101db9190612084565b6107a0565b005b6101fc60048036038101906101f79190612259565b6107c0565b60405161020991906126e0565b60405180910390f35b61022c6004803603810190610227919061201f565b610872565b604051610239919061297d565b60405180910390f35b61025c6004803603810190610257919061201f565b61092a565b6040516102699190612747565b60405180910390f35b61028c60048036038101906102879190612218565b610ac9565b005b610296610b57565b6040516102a39190612784565b60405180910390f35b6102c660048036038101906102c19190612259565b610be9565b6040516102d49291906127a6565b60405180910390f35b6102f760048036038101906102f2919061214e565b610d2d565b005b610313600480360381019061030e91906120d3565b610d43565b005b61032f600480360381019061032a9190612259565b610da5565b60405161033c9190612784565b60405180910390f35b61035f600480360381019061035a9190612259565b610e4c565b60405161036c91906126e0565b60405180910390f35b61038f600480360381019061038a9190612048565b610e7f565b60405161039c9190612769565b60405180910390f35b60007f80ac58cd000000000000000000000000000000000000000000000000000000007bffffffffffffffffffffffffffffffffffffffffffffffffffffffff1916827bffffffffffffffffffffffffffffffffffffffffffffffffffffffff1916148061047057507f5b5e139f000000000000000000000000000000000000000000000000000000007bffffffffffffffffffffffffffffffffffffffffffffffffffffffff1916827bffffffffffffffffffffffffffffffffffffffffffffffffffffffff1916145b80610480575061047f82610f13565b5b9050919050565b60606000805461049690612c63565b80601f01602080910402602001604051908101604052809291908181526020018280546104c290612c63565b801561050f5780601f106104e45761010080835404028352916020019161050f565b820191906000526020600020905b8154815290600101906020018083116104f257829003601f168201915b5050505050905090565b600061052482610f7d565b610563576040517f08c379a000000000000000000000000000000000000000000000000000000000815260040161055a9061291d565b60405180910390fd5b6004600083815260200190815260200160002060009054906101000a900473ffffffffffffffffffffffffffffffffffffffff169050919050565b806007600082815260200190815260200160002060009054906101000a900473ffffffffffffffffffffffffffffffffffffffff1673ffffffffffffffffffffffffffffffffffffffff163373ffffffffffffffffffffffffffffffffffffffff161461060a57600080fd5b826009600084815260200190815260200160002060006101000a81548173ffffffffffffffffffffffffffffffffffffffff021916908373ffffffffffffffffffffffffffffffffffffffff160217905550818373ffffffffffffffffffffffffffffffffffffffff163373ffffffffffffffffffffffffffffffffffffffff167f8c5be1e5ebec7d5bd14f71427d1e84f3dd0314c0f7b2291e5b200ac8c7c3b92560405160405180910390a4505050565b3373ffffffffffffffffffffffffffffffffffffffff166007600083815260200190815260200160002060009054906101000a900473ffffffffffffffffffffffffffffffffffffffff1673ffffffffffffffffffffffffffffffffffffffff16148061078757503373ffffffffffffffffffffffffffffffffffffffff166009600083815260200190815260200160002060009054906101000a900473ffffffffffffffffffffffffffffffffffffffff1673ffffffffffffffffffffffffffffffffffffffff16145b61079057600080fd5b61079b838383610fe9565b505050565b6107bb83838360405180602001604052806000815250610d43565b505050565b6000806002600084815260200190815260200160002060009054906101000a900473ffffffffffffffffffffffffffffffffffffffff169050600073ffffffffffffffffffffffffffffffffffffffff168173ffffffffffffffffffffffffffffffffffffffff161415610869576040517f08c379a0000000000000000000000000000000000000000000000000000000008152600401610860906128bd565b60405180910390fd5b80915050919050565b60008073ffffffffffffffffffffffffffffffffffffffff168273ffffffffffffffffffffffffffffffffffffffff1614156108e3576040517f08c379a00000000000000000000000000000000000000000000000000000000081526004016108da9061289d565b60405180910390fd5b600360008373ffffffffffffffffffffffffffffffffffffffff1673ffffffffffffffffffffffffffffffffffffffff168152602001908152602001600020549050919050565b60606000600860008473ffffffffffffffffffffffffffffffffffffffff1673ffffffffffffffffffffffffffffffffffffffff1681526020019081526020016000205467ffffffffffffffff8111156109ad577f4e487b7100000000000000000000000000000000000000000000000000000000600052604160045260246000fd5b6040519080825280602002602001820160405280156109db5781602001602082028036833780820191505090505b5090506000805b600680549050811015610abe578473ffffffffffffffffffffffffffffffffffffffff166007600083815260200190815260200160002060009054906101000a900473ffffffffffffffffffffffffffffffffffffffff1673ffffffffffffffffffffffffffffffffffffffff161415610aab5780838381518110610a90577f4e487b7100000000000000000000000000000000000000000000000000000000600052603260045260246000fd5b6020026020010181815250508180610aa790612cc6565b9250505b8080610ab690612cc6565b9150506109e2565b508192505050919050565b600a600860003373ffffffffffffffffffffffffffffffffffffffff1673ffffffffffffffffffffffffffffffffffffffff1681526020019081526020016000205410610b4b576040517f08c379a0000000000000000000000000000000000000000000000000000000008152600401610b42906128dd565b60405180910390fd5b610b5481611250565b50565b606060018054610b6690612c63565b80601f0160208091040260200160405190810160405280929190818152602001828054610b9290612c63565b8015610bdf5780601f10610bb457610100808354040283529160200191610bdf565b820191906000526020600020905b815481529060010190602001808311610bc257829003601f168201915b5050505050905090565b60068181548110610bf957600080fd5b9060005260206000209060020201600091509050806000018054610c1c90612c63565b80601f0160208091040260200160405190810160405280929190818152602001828054610c4890612c63565b8015610c955780601f10610c6a57610100808354040283529160200191610c95565b820191906000526020600020905b815481529060010190602001808311610c7857829003601f168201915b505050505090806001018054610caa90612c63565b80601f0160208091040260200160405190810160405280929190818152602001828054610cd690612c63565b8015610d235780601f10610cf857610100808354040283529160200191610d23565b820191906000526020600020905b815481529060010190602001808311610d0657829003601f168201915b5050505050905082565b610d3f610d38611480565b8383611488565b5050565b610d54610d4e611480565b836115f5565b610d93576040517f08c379a0000000000000000000000000000000000000000000000000000000008152600401610d8a9061295d565b60405180910390fd5b610d9f848484846116d3565b50505050565b6060610db082610f7d565b610def576040517f08c379a0000000000000000000000000000000000000000000000000000000008152600401610de69061293d565b60405180910390fd5b6000610df961172f565b90506000815111610e195760405180602001604052806000815250610e44565b80610e2384611746565b604051602001610e3492919061265f565b6040516020818303038152906040525b915050919050565b60076020528060005260406000206000915054906101000a900473ffffffffffffffffffffffffffffffffffffffff1681565b6000600560008473ffffffffffffffffffffffffffffffffffffffff1673ffffffffffffffffffffffffffffffffffffffff16815260200190815260200160002060008373ffffffffffffffffffffffffffffffffffffffff1673ffffffffffffffffffffffffffffffffffffffff16815260200190815260200160002060009054906101000a900460ff16905092915050565b60007f01ffc9a7000000000000000000000000000000000000000000000000000000007bffffffffffffffffffffffffffffffffffffffffffffffffffffffff1916827bffffffffffffffffffffffffffffffffffffffffffffffffffffffff1916149050919050565b60008073ffffffffffffffffffffffffffffffffffffffff166002600084815260200190815260200160002060009054906101000a900473ffffffffffffffffffffffffffffffffffffffff1673ffffffffffffffffffffffffffffffffffffffff1614159050919050565b8273ffffffffffffffffffffffffffffffffffffffff16611009826107c0565b73ffffffffffffffffffffffffffffffffffffffff161461105f576040517f08c379a0000000000000000000000000000000000000000000000000000000008152600401611056906127fd565b60405180910390fd5b600073ffffffffffffffffffffffffffffffffffffffff168273ffffffffffffffffffffffffffffffffffffffff1614156110cf576040517f08c379a00000000000000000000000000000000000000000000000000000000081526004016110c69061283d565b60405180910390fd5b6110da8383836118f3565b6110e56000826118f8565b6001600860008573ffffffffffffffffffffffffffffffffffffffff1673ffffffffffffffffffffffffffffffffffffffff16815260200190815260200160002060008282546111359190612b67565b925050819055506001600860008473ffffffffffffffffffffffffffffffffffffffff1673ffffffffffffffffffffffffffffffffffffffff168152602001908152602001600020600082825461118c9190612ae0565b92505081905550816007600083815260200190815260200160002060006101000a81548173ffffffffffffffffffffffffffffffffffffffff021916908373ffffffffffffffffffffffffffffffffffffffff160217905550808273ffffffffffffffffffffffffffffffffffffffff168473ffffffffffffffffffffffffffffffffffffffff167fddf252ad1be2c89b69c2b068fc378daa952ba7f163c4a11628f55a4df523b3ef60405160405180910390a461124b8383836119b1565b505050565b600061125d610fa06119b6565b90506006604051806040016040528084815260200183815250908060018154018082558091505060019003906000526020600020906002020160009091909190915060008201518160000190805190602001906112bb929190611e43565b5060208201518160010190805190602001906112d8929190611e43565b505050600060016006805490506112ef9190612b67565b9050336007600083815260200190815260200160002060006101000a81548173ffffffffffffffffffffffffffffffffffffffff021916908373ffffffffffffffffffffffffffffffffffffffff160217905550600860003373ffffffffffffffffffffffffffffffffffffffff1673ffffffffffffffffffffffffffffffffffffffff168152602001908152602001600020600081548092919061139390612cc6565b91905055600860003373ffffffffffffffffffffffffffffffffffffffff1673ffffffffffffffffffffffffffffffffffffffff168152602001908152602001600020819055506113e43382611aaf565b7f1c36c86036e79922e42ca3dd9494702c827fc73a8c35939a3d8f73e9e452072481848460405161141793929190612998565b60405180910390a1803373ffffffffffffffffffffffffffffffffffffffff16600073ffffffffffffffffffffffffffffffffffffffff167fddf252ad1be2c89b69c2b068fc378daa952ba7f163c4a11628f55a4df523b3ef60405160405180910390a4505050565b600033905090565b8173ffffffffffffffffffffffffffffffffffffffff168373ffffffffffffffffffffffffffffffffffffffff1614156114f7576040517f08c379a00000000000000000000000000000000000000000000000000000000081526004016114ee9061285d565b60405180910390fd5b80600560008573ffffffffffffffffffffffffffffffffffffffff1673ffffffffffffffffffffffffffffffffffffffff16815260200190815260200160002060008473ffffffffffffffffffffffffffffffffffffffff1673ffffffffffffffffffffffffffffffffffffffff16815260200190815260200160002060006101000a81548160ff0219169083151502179055508173ffffffffffffffffffffffffffffffffffffffff168373ffffffffffffffffffffffffffffffffffffffff167f17307eab39ab6107e8899845ad3d59bd9653f200f220920489ca2b5937696c31836040516115e89190612769565b60405180910390a3505050565b600061160082610f7d565b61163f576040517f08c379a00000000000000000000000000000000000000000000000000000000081526004016116369061287d565b60405180910390fd5b600061164a836107c0565b90508073ffffffffffffffffffffffffffffffffffffffff168473ffffffffffffffffffffffffffffffffffffffff1614806116b957508373ffffffffffffffffffffffffffffffffffffffff166116a184610519565b73ffffffffffffffffffffffffffffffffffffffff16145b806116ca57506116c98185610e7f565b5b91505092915050565b6116de848484610fe9565b6116ea84848484611c89565b611729576040517f08c379a0000000000000000000000000000000000000000000000000000000008152600401611720906127dd565b60405180910390fd5b50505050565b606060405180602001604052806000815250905090565b6060600082141561178e576040518060400160405280600181526020017f300000000000000000000000000000000000000000000000000000000000000081525090506118ee565b600082905060005b600082146117c05780806117a990612cc6565b915050600a826117b99190612b36565b9150611796565b60008167ffffffffffffffff811115611802577f4e487b7100000000000000000000000000000000000000000000000000000000600052604160045260246000fd5b6040519080825280601f01601f1916602001820160405280156118345781602001600182028036833780820191505090505b5090505b600085146118e75760018261184d9190612b67565b9150600a8561185c9190612d4f565b60306118689190612ae0565b60f81b8183815181106118a4577f4e487b7100000000000000000000000000000000000000000000000000000000600052603260045260246000fd5b60200101907effffffffffffffffffffffffffffffffffffffffffffffffffffffffffffff1916908160001a905350600a856118e09190612b36565b9450611838565b8093505050505b919050565b505050565b816004600083815260200190815260200160002060006101000a81548173ffffffffffffffffffffffffffffffffffffffff021916908373ffffffffffffffffffffffffffffffffffffffff160217905550808273ffffffffffffffffffffffffffffffffffffffff1661196b836107c0565b73ffffffffffffffffffffffffffffffffffffffff167f8c5be1e5ebec7d5bd14f71427d1e84f3dd0314c0f7b2291e5b200ac8c7c3b92560405160405180910390a45050565b505050565b606060004342336040516020016119cd9190612629565b6040516020818303038152906040528051906020012060001c6119f09190612b36565b454241604051602001611a039190612644565b6040516020818303038152906040528051906020012060001c611a269190612b36565b4442611a329190612ae0565b611a3c9190612ae0565b611a469190612ae0565b611a509190612ae0565b611a5a9190612ae0565b604051602001611a6a91906126c5565b6040516020818303038152906040528051906020012060001c90508083604051602001611a98929190612683565b604051602081830303815290604052915050919050565b600073ffffffffffffffffffffffffffffffffffffffff168273ffffffffffffffffffffffffffffffffffffffff161415611b1f576040517f08c379a0000000000000000000000000000000000000000000000000000000008152600401611b16906128fd565b60405180910390fd5b611b2881610f7d565b15611b68576040517f08c379a0000000000000000000000000000000000000000000000000000000008152600401611b5f9061281d565b60405180910390fd5b611b74600083836118f3565b6001600360008473ffffffffffffffffffffffffffffffffffffffff1673ffffffffffffffffffffffffffffffffffffffff1681526020019081526020016000206000828254611bc49190612ae0565b92505081905550816002600083815260200190815260200160002060006101000a81548173ffffffffffffffffffffffffffffffffffffffff021916908373ffffffffffffffffffffffffffffffffffffffff160217905550808273ffffffffffffffffffffffffffffffffffffffff16600073ffffffffffffffffffffffffffffffffffffffff167fddf252ad1be2c89b69c2b068fc378daa952ba7f163c4a11628f55a4df523b3ef60405160405180910390a4611c85600083836119b1565b5050565b6000611caa8473ffffffffffffffffffffffffffffffffffffffff16611e20565b15611e13578373ffffffffffffffffffffffffffffffffffffffff1663150b7a02611cd3611480565b8786866040518563ffffffff1660e01b8152600401611cf594939291906126fb565b602060405180830381600087803b158015611d0f57600080fd5b505af1925050508015611d4057506040513d601f19601f82011682018060405250810190611d3d91906121ef565b60015b611dc3573d8060008114611d70576040519150601f19603f3d011682016040523d82523d6000602084013e611d75565b606091505b50600081511415611dbb576040517f08c379a0000000000000000000000000000000000000000000000000000000008152600401611db2906127dd565b60405180910390fd5b805181602001fd5b63150b7a0260e01b7bffffffffffffffffffffffffffffffffffffffffffffffffffffffff1916817bffffffffffffffffffffffffffffffffffffffffffffffffffffffff191614915050611e18565b600190505b949350505050565b6000808273ffffffffffffffffffffffffffffffffffffffff163b119050919050565b828054611e4f90612c63565b90600052602060002090601f016020900481019282611e715760008555611eb8565b82601f10611e8a57805160ff1916838001178555611eb8565b82800160010185558215611eb8579182015b82811115611eb7578251825591602001919060010190611e9c565b5b509050611ec59190611ec9565b5090565b5b80821115611ee2576000816000905550600101611eca565b5090565b6000611ef9611ef484612a02565b6129dd565b905082815260208101848484011115611f1157600080fd5b611f1c848285612c21565b509392505050565b6000611f37611f3284612a33565b6129dd565b905082815260208101848484011115611f4f57600080fd5b611f5a848285612c21565b509392505050565b600081359050611f7181613289565b92915050565b600081359050611f86816132a0565b92915050565b600081359050611f9b816132b7565b92915050565b600081519050611fb0816132b7565b92915050565b600082601f830112611fc757600080fd5b8135611fd7848260208601611ee6565b91505092915050565b600082601f830112611ff157600080fd5b8135612001848260208601611f24565b91505092915050565b600081359050612019816132ce565b92915050565b60006020828403121561203157600080fd5b600061203f84828501611f62565b91505092915050565b6000806040838503121561205b57600080fd5b600061206985828601611f62565b925050602061207a85828601611f62565b9150509250929050565b60008060006060848603121561209957600080fd5b60006120a786828701611f62565b93505060206120b886828701611f62565b92505060406120c98682870161200a565b9150509250925092565b600080600080608085870312156120e957600080fd5b60006120f787828801611f62565b945050602061210887828801611f62565b93505060406121198782880161200a565b925050606085013567ffffffffffffffff81111561213657600080fd5b61214287828801611fb6565b91505092959194509250565b6000806040838503121561216157600080fd5b600061216f85828601611f62565b925050602061218085828601611f77565b9150509250929050565b6000806040838503121561219d57600080fd5b60006121ab85828601611f62565b92505060206121bc8582860161200a565b9150509250929050565b6000602082840312156121d857600080fd5b60006121e684828501611f8c565b91505092915050565b60006020828403121561220157600080fd5b600061220f84828501611fa1565b91505092915050565b60006020828403121561222a57600080fd5b600082013567ffffffffffffffff81111561224457600080fd5b61225084828501611fe0565b91505092915050565b60006020828403121561226b57600080fd5b60006122798482850161200a565b91505092915050565b600061228e83836125f4565b60208301905092915050565b6122ab6122a682612bad565b612d21565b82525050565b6122ba81612b9b565b82525050565b6122d16122cc82612b9b565b612d0f565b82525050565b60006122e282612a74565b6122ec8185612aa2565b93506122f783612a64565b8060005b8381101561232857815161230f8882612282565b975061231a83612a95565b9250506001810190506122fb565b5085935050505092915050565b61233e81612bbf565b82525050565b600061234f82612a7f565b6123598185612ab3565b9350612369818560208601612c30565b61237281612e3c565b840191505092915050565b600061238882612a8a565b6123928185612ac4565b93506123a2818560208601612c30565b6123ab81612e3c565b840191505092915050565b60006123c182612a8a565b6123cb8185612ad5565b93506123db818560208601612c30565b80840191505092915050565b60006123f4602283612ad5565b91506123ff82612e5a565b602282019050919050565b6000612417603283612ac4565b915061242282612ea9565b604082019050919050565b600061243a602583612ac4565b915061244582612ef8565b604082019050919050565b600061245d601c83612ac4565b915061246882612f47565b602082019050919050565b6000612480602483612ac4565b915061248b82612f70565b604082019050919050565b60006124a3601983612ac4565b91506124ae82612fbf565b602082019050919050565b60006124c6602c83612ac4565b91506124d182612fe8565b604082019050919050565b60006124e9602a83612ac4565b91506124f482613037565b604082019050919050565b600061250c602983612ac4565b915061251782613086565b604082019050919050565b600061252f604183612ac4565b915061253a826130d5565b606082019050919050565b6000612552602083612ac4565b915061255d8261314a565b602082019050919050565b6000612575602c83612ac4565b915061258082613173565b604082019050919050565b6000612598602f83612ac4565b91506125a3826131c2565b604082019050919050565b60006125bb603183612ac4565b91506125c682613211565b604082019050919050565b60006125de600183612ad5565b91506125e982613260565b600182019050919050565b6125fd81612c17565b82525050565b61260c81612c17565b82525050565b61262361261e82612c17565b612d45565b82525050565b600061263582846122c0565b60148201915081905092915050565b6000612650828461229a565b60148201915081905092915050565b600061266b82856123b6565b915061267782846123b6565b91508190509392505050565b600061268e826123e7565b915061269a8285612612565b6020820191506126a9826125d1565b91506126b58284612612565b6020820191508190509392505050565b60006126d18284612612565b60208201915081905092915050565b60006020820190506126f560008301846122b1565b92915050565b600060808201905061271060008301876122b1565b61271d60208301866122b1565b61272a6040830185612603565b818103606083015261273c8184612344565b905095945050505050565b6000602082019050818103600083015261276181846122d7565b905092915050565b600060208201905061277e6000830184612335565b92915050565b6000602082019050818103600083015261279e818461237d565b905092915050565b600060408201905081810360008301526127c0818561237d565b905081810360208301526127d4818461237d565b90509392505050565b600060208201905081810360008301526127f68161240a565b9050919050565b600060208201905081810360008301526128168161242d565b9050919050565b6000602082019050818103600083015261283681612450565b9050919050565b6000602082019050818103600083015261285681612473565b9050919050565b6000602082019050818103600083015261287681612496565b9050919050565b60006020820190508181036000830152612896816124b9565b9050919050565b600060208201905081810360008301526128b6816124dc565b9050919050565b600060208201905081810360008301526128d6816124ff565b9050919050565b600060208201905081810360008301526128f681612522565b9050919050565b6000602082019050818103600083015261291681612545565b9050919050565b6000602082019050818103600083015261293681612568565b9050919050565b600060208201905081810360008301526129568161258b565b9050919050565b60006020820190508181036000830152612976816125ae565b9050919050565b60006020820190506129926000830184612603565b92915050565b60006060820190506129ad6000830186612603565b81810360208301526129bf818561237d565b905081810360408301526129d3818461237d565b9050949350505050565b60006129e76129f8565b90506129f38282612c95565b919050565b6000604051905090565b600067ffffffffffffffff821115612a1d57612a1c612e0d565b5b612a2682612e3c565b9050602081019050919050565b600067ffffffffffffffff821115612a4e57612a4d612e0d565b5b612a5782612e3c565b9050602081019050919050565b6000819050602082019050919050565b600081519050919050565b600081519050919050565b600081519050919050565b6000602082019050919050565b600082825260208201905092915050565b600082825260208201905092915050565b600082825260208201905092915050565b600081905092915050565b6000612aeb82612c17565b9150612af683612c17565b9250827fffffffffffffffffffffffffffffffffffffffffffffffffffffffffffffffff03821115612b2b57612b2a612d80565b5b828201905092915050565b6000612b4182612c17565b9150612b4c83612c17565b925082612b5c57612b5b612daf565b5b828204905092915050565b6000612b7282612c17565b9150612b7d83612c17565b925082821015612b9057612b8f612d80565b5b828203905092915050565b6000612ba682612bf7565b9050919050565b6000612bb882612bf7565b9050919050565b60008115159050919050565b60007fffffffff0000000000000000000000000000000000000000000000000000000082169050919050565b600073ffffffffffffffffffffffffffffffffffffffff82169050919050565b6000819050919050565b82818337600083830152505050565b60005b83811015612c4e578082015181840152602081019050612c33565b83811115612c5d576000848401525b50505050565b60006002820490506001821680612c7b57607f821691505b60208210811415612c8f57612c8e612dde565b5b50919050565b612c9e82612e3c565b810181811067ffffffffffffffff82111715612cbd57612cbc612e0d565b5b80604052505050565b6000612cd182612c17565b91507fffffffffffffffffffffffffffffffffffffffffffffffffffffffffffffffff821415612d0457612d03612d80565b5b600182019050919050565b6000612d1a82612d33565b9050919050565b6000612d2c82612d33565b9050919050565b6000612d3e82612e4d565b9050919050565b6000819050919050565b6000612d5a82612c17565b9150612d6583612c17565b925082612d7557612d74612daf565b5b828206905092915050565b7f4e487b7100000000000000000000000000000000000000000000000000000000600052601160045260246000fd5b7f4e487b7100000000000000000000000000000000000000000000000000000000600052601260045260246000fd5b7f4e487b7100000000000000000000000000000000000000000000000000000000600052602260045260246000fd5b7f4e487b7100000000000000000000000000000000000000000000000000000000600052604160045260246000fd5b6000601f19601f8301169050919050565b60008160601b9050919050565b7f68747470733a2f2f70696373756d2e70686f746f732f736565642f706963737560008201527f6d2f000000000000000000000000000000000000000000000000000000000000602082015250565b7f4552433732313a207472616e7366657220746f206e6f6e20455243373231526560008201527f63656976657220696d706c656d656e7465720000000000000000000000000000602082015250565b7f4552433732313a207472616e736665722066726f6d20696e636f72726563742060008201527f6f776e6572000000000000000000000000000000000000000000000000000000602082015250565b7f4552433732313a20746f6b656e20616c7265616479206d696e74656400000000600082015250565b7f4552433732313a207472616e7366657220746f20746865207a65726f2061646460008201527f7265737300000000000000000000000000000000000000000000000000000000602082015250565b7f4552433732313a20617070726f766520746f2063616c6c657200000000000000600082015250565b7f4552433732313a206f70657261746f7220717565727920666f72206e6f6e657860008201527f697374656e7420746f6b656e0000000000000000000000000000000000000000602082015250565b7f4552433732313a2062616c616e636520717565727920666f7220746865207a6560008201527f726f206164647265737300000000000000000000000000000000000000000000602082015250565b7f4552433732313a206f776e657220717565727920666f72206e6f6e657869737460008201527f656e7420746f6b656e0000000000000000000000000000000000000000000000602082015250565b7f596f7520617265206f6e6c7920616c6c6f77656420746f20637265617465205460008201527f2d73686972747320696620796f752068617665206c657373207468616e20313060208201527f2e00000000000000000000000000000000000000000000000000000000000000604082015250565b7f4552433732313a206d696e7420746f20746865207a65726f2061646472657373600082015250565b7f4552433732313a20617070726f76656420717565727920666f72206e6f6e657860008201527f697374656e7420746f6b656e0000000000000000000000000000000000000000602082015250565b7f4552433732314d657461646174613a2055524920717565727920666f72206e6f60008201527f6e6578697374656e7420746f6b656e0000000000000000000000000000000000602082015250565b7f4552433732313a207472616e736665722063616c6c6572206973206e6f74206f60008201527f776e6572206e6f7220617070726f766564000000000000000000000000000000602082015250565b7f2f00000000000000000000000000000000000000000000000000000000000000600082015250565b61329281612b9b565b811461329d57600080fd5b50565b6132a981612bbf565b81146132b457600080fd5b50565b6132c081612bcb565b81146132cb57600080fd5b50565b6132d781612c17565b81146132e257600080fd5b5056fea2646970667358221220bfc94a6ac70b3c540476e9fec62dd3e841cc2eb8c4f8073c7b42d55e9ae9b22964736f6c63430008010033",
  "linkReferences": {},
  "deployedLinkReferences": {}
}